{
  "abi": [
    {
      "type": "constructor",
      "inputs": [],
      "stateMutability": "nonpayable"
    },
    {
      "type": "fallback",
      "stateMutability": "payable"
    },
    {
      "type": "receive",
      "stateMutability": "payable"
    },
    {
      "type": "function",
      "name": "REPLAYABLE_NONCE_KEY",
      "inputs": [],
      "outputs": [
        {
          "name": "",
          "type": "uint256",
          "internalType": "uint256"
        }
      ],
      "stateMutability": "view"
    },
    {
      "type": "function",
      "name": "addOwnerAddress",
      "inputs": [
        {
          "name": "owner",
          "type": "address",
          "internalType": "address"
        }
      ],
      "outputs": [],
      "stateMutability": "nonpayable"
    },
    {
      "type": "function",
      "name": "addOwnerPublicKey",
      "inputs": [
        {
          "name": "x",
          "type": "bytes32",
          "internalType": "bytes32"
        },
        {
          "name": "y",
          "type": "bytes32",
          "internalType": "bytes32"
        }
      ],
      "outputs": [],
      "stateMutability": "nonpayable"
    },
    {
      "type": "function",
      "name": "canSkipChainIdValidation",
      "inputs": [
        {
          "name": "functionSelector",
          "type": "bytes4",
          "internalType": "bytes4"
        }
      ],
      "outputs": [
        {
          "name": "",
          "type": "bool",
          "internalType": "bool"
        }
      ],
      "stateMutability": "pure"
    },
    {
      "type": "function",
      "name": "domainSeparator",
      "inputs": [],
      "outputs": [
        {
          "name": "",
          "type": "bytes32",
          "internalType": "bytes32"
        }
      ],
      "stateMutability": "view"
    },
    {
      "type": "function",
      "name": "eip712Domain",
      "inputs": [],
      "outputs": [
        {
          "name": "fields",
          "type": "bytes1",
          "internalType": "bytes1"
        },
        {
          "name": "name",
          "type": "string",
          "internalType": "string"
        },
        {
          "name": "version",
          "type": "string",
          "internalType": "string"
        },
        {
          "name": "chainId",
          "type": "uint256",
          "internalType": "uint256"
        },
        {
          "name": "verifyingContract",
          "type": "address",
          "internalType": "address"
        },
        {
          "name": "salt",
          "type": "bytes32",
          "internalType": "bytes32"
        },
        {
          "name": "extensions",
          "type": "uint256[]",
          "internalType": "uint256[]"
        }
      ],
      "stateMutability": "view"
    },
    {
      "type": "function",
      "name": "entryPoint",
      "inputs": [],
      "outputs": [
        {
          "name": "",
          "type": "address",
          "internalType": "address"
        }
      ],
      "stateMutability": "view"
    },
    {
      "type": "function",
      "name": "execute",
      "inputs": [
        {
          "name": "target",
          "type": "address",
          "internalType": "address"
        },
        {
          "name": "value",
          "type": "uint256",
          "internalType": "uint256"
        },
        {
          "name": "data",
          "type": "bytes",
          "internalType": "bytes"
        }
      ],
      "outputs": [],
      "stateMutability": "payable"
    },
    {
      "type": "function",
      "name": "executeBatch",
      "inputs": [
        {
          "name": "calls",
          "type": "tuple[]",
          "internalType": "struct CoinbaseSmartWallet.Call[]",
          "components": [
            {
              "name": "target",
              "type": "address",
              "internalType": "address"
            },
            {
              "name": "value",
              "type": "uint256",
              "internalType": "uint256"
            },
            {
              "name": "data",
              "type": "bytes",
              "internalType": "bytes"
            }
          ]
        }
      ],
      "outputs": [],
      "stateMutability": "payable"
    },
    {
      "type": "function",
      "name": "executeWithoutChainIdValidation",
      "inputs": [
        {
          "name": "data",
          "type": "bytes",
          "internalType": "bytes"
        }
      ],
      "outputs": [],
      "stateMutability": "payable"
    },
    {
      "type": "function",
      "name": "getUserOpHashWithoutChainId",
      "inputs": [
        {
          "name": "userOp",
          "type": "tuple",
          "internalType": "struct UserOperation",
          "components": [
            {
              "name": "sender",
              "type": "address",
              "internalType": "address"
            },
            {
              "name": "nonce",
              "type": "uint256",
              "internalType": "uint256"
            },
            {
              "name": "initCode",
              "type": "bytes",
              "internalType": "bytes"
            },
            {
              "name": "callData",
              "type": "bytes",
              "internalType": "bytes"
            },
            {
              "name": "callGasLimit",
              "type": "uint256",
              "internalType": "uint256"
            },
            {
              "name": "verificationGasLimit",
              "type": "uint256",
              "internalType": "uint256"
            },
            {
              "name": "preVerificationGas",
              "type": "uint256",
              "internalType": "uint256"
            },
            {
              "name": "maxFeePerGas",
              "type": "uint256",
              "internalType": "uint256"
            },
            {
              "name": "maxPriorityFeePerGas",
              "type": "uint256",
              "internalType": "uint256"
            },
            {
              "name": "paymasterAndData",
              "type": "bytes",
              "internalType": "bytes"
            },
            {
              "name": "signature",
              "type": "bytes",
              "internalType": "bytes"
            }
          ]
        }
      ],
      "outputs": [
        {
          "name": "userOpHash",
          "type": "bytes32",
          "internalType": "bytes32"
        }
      ],
      "stateMutability": "view"
    },
    {
      "type": "function",
      "name": "implementation",
      "inputs": [],
      "outputs": [
        {
          "name": "addr",
          "type": "address",
          "internalType": "address"
        }
      ],
      "stateMutability": "view"
    },
    {
      "type": "function",
      "name": "initialize",
      "inputs": [
        {
          "name": "owners",
          "type": "bytes[]",
          "internalType": "bytes[]"
        }
      ],
      "outputs": [],
      "stateMutability": "payable"
    },
    {
      "type": "function",
      "name": "isOwnerAddress",
      "inputs": [
        {
          "name": "account",
          "type": "address",
          "internalType": "address"
        }
      ],
      "outputs": [
        {
          "name": "",
          "type": "bool",
          "internalType": "bool"
        }
      ],
      "stateMutability": "view"
    },
    {
      "type": "function",
      "name": "isOwnerBytes",
      "inputs": [
        {
          "name": "account",
          "type": "bytes",
          "internalType": "bytes"
        }
      ],
      "outputs": [
        {
          "name": "",
          "type": "bool",
          "internalType": "bool"
        }
      ],
      "stateMutability": "view"
    },
    {
      "type": "function",
      "name": "isOwnerPublicKey",
      "inputs": [
        {
          "name": "x",
          "type": "bytes32",
          "internalType": "bytes32"
        },
        {
          "name": "y",
          "type": "bytes32",
          "internalType": "bytes32"
        }
      ],
      "outputs": [
        {
          "name": "",
          "type": "bool",
          "internalType": "bool"
        }
      ],
      "stateMutability": "view"
    },
    {
      "type": "function",
      "name": "isValidSignature",
      "inputs": [
        {
          "name": "hash",
          "type": "bytes32",
          "internalType": "bytes32"
        },
        {
          "name": "signature",
          "type": "bytes",
          "internalType": "bytes"
        }
      ],
      "outputs": [
        {
          "name": "result",
          "type": "bytes4",
          "internalType": "bytes4"
        }
      ],
      "stateMutability": "view"
    },
    {
      "type": "function",
      "name": "nextOwnerIndex",
      "inputs": [],
      "outputs": [
        {
          "name": "",
          "type": "uint256",
          "internalType": "uint256"
        }
      ],
      "stateMutability": "view"
    },
    {
      "type": "function",
      "name": "ownerAtIndex",
      "inputs": [
        {
          "name": "index",
          "type": "uint256",
          "internalType": "uint256"
        }
      ],
      "outputs": [
        {
          "name": "",
          "type": "bytes",
          "internalType": "bytes"
        }
      ],
      "stateMutability": "view"
    },
    {
      "type": "function",
      "name": "proxiableUUID",
      "inputs": [],
      "outputs": [
        {
          "name": "",
          "type": "bytes32",
          "internalType": "bytes32"
        }
      ],
      "stateMutability": "view"
    },
    {
      "type": "function",
      "name": "removeOwnerAtIndex",
      "inputs": [
        {
          "name": "index",
          "type": "uint256",
          "internalType": "uint256"
        }
      ],
      "outputs": [],
      "stateMutability": "nonpayable"
    },
    {
      "type": "function",
      "name": "replaySafeHash",
      "inputs": [
        {
          "name": "hash",
          "type": "bytes32",
          "internalType": "bytes32"
        }
      ],
      "outputs": [
        {
          "name": "",
          "type": "bytes32",
          "internalType": "bytes32"
        }
      ],
      "stateMutability": "view"
    },
    {
      "type": "function",
      "name": "upgradeToAndCall",
      "inputs": [
        {
          "name": "newImplementation",
          "type": "address",
          "internalType": "address"
        },
        {
          "name": "data",
          "type": "bytes",
          "internalType": "bytes"
        }
      ],
      "outputs": [],
      "stateMutability": "payable"
    },
    {
      "type": "function",
      "name": "validateUserOp",
      "inputs": [
        {
          "name": "userOp",
          "type": "tuple",
          "internalType": "struct UserOperation",
          "components": [
            {
              "name": "sender",
              "type": "address",
              "internalType": "address"
            },
            {
              "name": "nonce",
              "type": "uint256",
              "internalType": "uint256"
            },
            {
              "name": "initCode",
              "type": "bytes",
              "internalType": "bytes"
            },
            {
              "name": "callData",
              "type": "bytes",
              "internalType": "bytes"
            },
            {
              "name": "callGasLimit",
              "type": "uint256",
              "internalType": "uint256"
            },
            {
              "name": "verificationGasLimit",
              "type": "uint256",
              "internalType": "uint256"
            },
            {
              "name": "preVerificationGas",
              "type": "uint256",
              "internalType": "uint256"
            },
            {
              "name": "maxFeePerGas",
              "type": "uint256",
              "internalType": "uint256"
            },
            {
              "name": "maxPriorityFeePerGas",
              "type": "uint256",
              "internalType": "uint256"
            },
            {
              "name": "paymasterAndData",
              "type": "bytes",
              "internalType": "bytes"
            },
            {
              "name": "signature",
              "type": "bytes",
              "internalType": "bytes"
            }
          ]
        },
        {
          "name": "userOpHash",
          "type": "bytes32",
          "internalType": "bytes32"
        },
        {
          "name": "missingAccountFunds",
          "type": "uint256",
          "internalType": "uint256"
        }
      ],
      "outputs": [
        {
          "name": "validationData",
          "type": "uint256",
          "internalType": "uint256"
        }
      ],
      "stateMutability": "payable"
    },
    {
      "type": "event",
      "name": "AddOwner",
      "inputs": [
        {
          "name": "index",
          "type": "uint256",
          "indexed": true,
          "internalType": "uint256"
        },
        {
          "name": "owner",
          "type": "bytes",
          "indexed": false,
          "internalType": "bytes"
        }
      ],
      "anonymous": false
    },
    {
      "type": "event",
      "name": "RemoveOwner",
      "inputs": [
        {
          "name": "index",
          "type": "uint256",
          "indexed": true,
          "internalType": "uint256"
        },
        {
          "name": "owner",
          "type": "bytes",
          "indexed": false,
          "internalType": "bytes"
        }
      ],
      "anonymous": false
    },
    {
      "type": "event",
      "name": "Upgraded",
      "inputs": [
        {
          "name": "implementation",
          "type": "address",
          "indexed": true,
          "internalType": "address"
        }
      ],
      "anonymous": false
    },
    {
      "type": "error",
      "name": "AlreadyOwner",
      "inputs": [
        {
          "name": "owner",
          "type": "bytes",
          "internalType": "bytes"
        }
      ]
    },
    {
      "type": "error",
      "name": "Initialized",
      "inputs": []
    },
    {
      "type": "error",
      "name": "InvalidEthereumAddressOwner",
      "inputs": [
        {
          "name": "owner",
          "type": "bytes",
          "internalType": "bytes"
        }
      ]
    },
    {
      "type": "error",
      "name": "InvalidNonceKey",
      "inputs": [
        {
          "name": "key",
          "type": "uint256",
          "internalType": "uint256"
        }
      ]
    },
    {
      "type": "error",
      "name": "InvalidOwnerBytesLength",
      "inputs": [
        {
          "name": "owner",
          "type": "bytes",
          "internalType": "bytes"
        }
      ]
    },
    {
      "type": "error",
      "name": "NoOwnerAtIndex",
      "inputs": [
        {
          "name": "index",
          "type": "uint256",
          "internalType": "uint256"
        }
      ]
    },
    {
      "type": "error",
      "name": "SelectorNotAllowed",
      "inputs": [
        {
          "name": "selector",
          "type": "bytes4",
          "internalType": "bytes4"
        }
      ]
    },
    {
      "type": "error",
      "name": "Unauthorized",
      "inputs": []
    },
    {
      "type": "error",
      "name": "UnauthorizedCallContext",
      "inputs": []
    },
    {
      "type": "error",
      "name": "UpgradeFailed",
      "inputs": []
    }
  ],
  "bytecode": {
    "object": "0x60a0604052306080523480156200001557600080fd5b50604080516001808252818301909252600091816020015b60608152602001906001900390816200002d57905050604080516000602082015291925001604051602081830303815290604052816000815181106200007757620000776200037a565b60209081029190910101526200008d8162000094565b50620005b0565b60005b81518110156200022657818181518110620000b657620000b66200037a565b602002602001015151602014158015620000ee5750818181518110620000e057620000e06200037a565b602002602001015151604014155b1562000136578181815181106200010957620001096200037a565b60200260200101516040516327755b9160e11b81526004016200012d9190620003b6565b60405180910390fd5b8181815181106200014b576200014b6200037a565b60200260200101515160201480156200019357506001600160a01b0380168282815181106200017e576200017e6200037a565b60200260200101516200019190620003eb565b115b15620001d257818181518110620001ae57620001ae6200037a565b602002602001015160405163bff1ac6560e01b81526004016200012d9190620003b6565b6200021d828281518110620001eb57620001eb6200037a565b6020026020010151620002036200022a60201b60201c565b8054906000620002138362000413565b909155506200023d565b60010162000097565b5050565b6000805160206200383783398151915290565b620002488262000326565b156200026b578160405163468b12ad60e11b81526004016200012d9190620003b6565b600160008051602062003837833981519152600201836040516200029091906200043b565b908152604051908190036020019020805491151560ff1990921691909117905581620002c86000805160206200383783398151915290565b60008381526001919091016020526040902090620002e79082620004e4565b50807f38109edc26e166b5579352ce56a50813177eb25208fd90d61f2f378386220220836040516200031a9190620003b6565b60405180910390a25050565b600060008051602062003837833981519152600201826040516200034b91906200043b565b9081526040519081900360200190205460ff1692915050565b634e487b7160e01b600052604160045260246000fd5b634e487b7160e01b600052603260045260246000fd5b60005b83811015620003ad57818101518382015260200162000393565b50506000910152565b6020815260008251806020840152620003d781604085016020870162000390565b601f01601f19169190910160400192915050565b805160208083015191908110156200040d576000198160200360031b1b821691505b50919050565b6000600182016200043457634e487b7160e01b600052601160045260246000fd5b5060010190565b600082516200044f81846020870162000390565b9190910192915050565b600181811c908216806200046e57607f821691505b6020821081036200040d57634e487b7160e01b600052602260045260246000fd5b601f821115620004df576000816000526020600020601f850160051c81016020861015620004ba5750805b601f850160051c820191505b81811015620004db57828155600101620004c6565b5050505b505050565b81516001600160401b0381111562000500576200050062000364565b620005188162000511845462000459565b846200048f565b602080601f831160018114620005505760008415620005375750858301515b600019600386901b1c1916600185901b178555620004db565b600085815260208120601f198616915b82811015620005815788860151825594840194600190910190840162000560565b5085821015620005a05787850151600019600388901b60f8161c191681555b5050505050600190811b01905550565b608051613264620005d36000396000818161081e015261095501526132646000f3fe60806040526004361061014f5760003560e01c806372de3b5a116100b6578063b0d691fe1161006f578063b0d691fe146103f4578063b61d27f61461041b578063bf6ba1fc1461042e578063ce1506be14610441578063d948fd2e14610461578063f698da251461048357610156565b806372de3b5a1461032957806384b0196e1461034957806388ce4c7c146103715780638ea69029146103875780639f9bcb34146103b4578063a2e1a8d8146103d457610156565b80633a871cdd116101085780633a871cdd146102655780634f1ef286146102865780634f6e7f221461029957806352d1902d146102b95780635c60da1b146102ce5780636f2de70e1461031657610156565b8063066a1eb7146101845780630f0f3f24146101b95780631626ba7e146101d95780631ca5393f1461021257806329565e3b1461023257806334fcd5be1461025257610156565b3661015657005b60003560e01c63bc197c81811463f23a6e6182141763150b7a028214171561018257806020526020603cf35b005b34801561019057600080fd5b506101a461019f366004612769565b610498565b60405190151581526020015b60405180910390f35b3480156101c557600080fd5b506101826101d43660046127a7565b610507565b3480156101e557600080fd5b506101f96101f436600461280a565b61053f565b6040516001600160e01b031990911681526020016101b0565b34801561021e57600080fd5b506101a461022d366004612940565b610579565b34801561023e57600080fd5b5061018261024d366004612769565b6105b4565b6101826102603660046129b8565b6105dd565b610278610273366004612a12565b6106e1565b6040519081526020016101b0565b610182610294366004612a5f565b61081c565b3480156102a557600080fd5b506102786102b4366004612a98565b610900565b3480156102c557600080fd5b50610278610951565b3480156102da57600080fd5b507f360894a13ba1a3210667c828492db98dca3e2076cc3735a920a3ca505d382bbc545b6040516001600160a01b0390911681526020016101b0565b6101826103243660046129b8565b6109b1565b34801561033557600080fd5b50610182610344366004612acc565b6109f1565b34801561035557600080fd5b5061035e610ade565b6040516101b09796959493929190612b35565b34801561037d57600080fd5b5061027861210581565b34801561039357600080fd5b506103a76103a2366004612acc565b610b05565b6040516101b09190612bce565b3480156103c057600080fd5b506101a46103cf366004612be1565b610bc6565b3480156103e057600080fd5b506101a46103ef3660046127a7565b610c42565b34801561040057600080fd5b50735ff137d4b0fdcd49dca30c7cf57e578a026d27896102fe565b610182610429366004612c0b565b610c88565b61018261043c366004612c64565b610cec565b34801561044d57600080fd5b5061027861045c366004612acc565b610dad565b34801561046d57600080fd5b5060008051602061320f83398151915254610278565b34801561048f57600080fd5b50610278610db8565b60408051602081018490529081018290526000907f97e2c6aad4ce5d562ebfaa00db6b9e0fb66ea5d8162ed5b243f51a2e03086f029060600160408051601f19818403018152908290526104eb91612c99565b9081526040519081900360200190205460ff1690505b92915050565b61050f610e3e565b604080516001600160a01b038316602082015261053c91015b604051602081830303815290604052610e70565b50565b600061055461054d85610dad565b8484610e9b565b156105675750630b135d3f60e11b610572565b506001600160e01b03195b9392505050565b600060008051602061320f8339815191526002018260405161059b9190612c99565b9081526040519081900360200190205460ff1692915050565b6105bc610e3e565b60408051602081018490529081018290526105d990606001610528565b5050565b33735ff137d4b0fdcd49dca30c7cf57e578a026d27891461060057610600610e3e565b60005b818110156106dc576106d483838381811061062057610620612cb5565b90506020028101906106329190612ccb565b6106409060208101906127a7565b84848481811061065257610652612cb5565b90506020028101906106649190612ccb565b6020013585858581811061067a5761067a612cb5565b905060200281019061068c9190612ccb565b61069a906040810190612ce1565b8080601f016020809104026020016040519081016040528093929190818152602001838380828437600092019190915250610fb092505050565b600101610603565b505050565b600033735ff137d4b0fdcd49dca30c7cf57e578a026d278914610716576040516282b42960e81b815260040160405180910390fd5b81602085013560401c600461072e6060880188612ce1565b90501015801561077257506107466060870187612ce1565b61075591600491600091612d27565b61075e91612d51565b6001600160e01b03191663bf6ba1fc60e01b145b156107b15761078086610900565b945061210581146107ac57604051632ef3781360e01b8152600481018290526024015b60405180910390fd5b6107d6565b61210581036107d657604051632ef3781360e01b8152600481018290526024016107a3565b6107ed856107e8610140890189612ce1565b610e9b565b156107fc576000925050610802565b60019250505b80156108145760003860003884335af1505b509392505050565b7f000000000000000000000000000000000000000000000000000000000000000030810361085257639f03a0266000526004601cfd5b61085b84611020565b8360601b60601c93506352d1902d6001527f360894a13ba1a3210667c828492db98dca3e2076cc3735a920a3ca505d382bbc80602060016004601d895afa51146108ad576355299b496001526004601dfd5b847fbc7cd75a20ee27fd9adebab32041f755214dbc6bffa90cc0225b39da2e5c2d3b600038a284905581156108fa57604051828482376000388483885af46108f8573d6000823e3d81fd5b505b50505050565b600061090b82611028565b604080516020810192909252735ff137d4b0fdcd49dca30c7cf57e578a026d2789908201526060015b604051602081830303815290604052805190602001209050919050565b60007f000000000000000000000000000000000000000000000000000000000000000030811461098957639f03a0266000526004601cfd5b7f360894a13ba1a3210667c828492db98dca3e2076cc3735a920a3ca505d382bbc91505b5090565b60008051602061320f83398151915254156109df576040516302ed543d60e51b815260040160405180910390fd5b6105d96109ec8284612d81565b611041565b6109f9610e3e565b6000610a0482610b05565b90508051600003610a2b5760405163340c473d60e11b8152600481018390526024016107a3565b6040517f97e2c6aad4ce5d562ebfaa00db6b9e0fb66ea5d8162ed5b243f51a2e03086f0290610a5b908390612c99565b908152604051908190036020019020805460ff19169055610a8760008051602061320f83398151915290565b600083815260019190910160205260408120610aa29161271f565b817fcf95bbfe6f870f8cc40482dc3dccdafd268f0e9ce0a4f24ea1bea9be64e505ff82604051610ad29190612bce565b60405180910390a25050565b600f60f81b6060806000808083610af3611193565b97989097965046955030945091925090565b60008181527f97e2c6aad4ce5d562ebfaa00db6b9e0fb66ea5d8162ed5b243f51a2e03086f0160205260409020805460609190610b4190612e06565b80601f0160208091040260200160405190810160405280929190818152602001828054610b6d90612e06565b8015610bba5780601f10610b8f57610100808354040283529160200191610bba565b820191906000526020600020905b815481529060010190602001808311610b9d57829003601f168201915b50505050509050919050565b60006001600160e01b031982166329565e3b60e01b1480610bf757506001600160e01b031982166303c3cfc960e21b145b80610c1257506001600160e01b0319821663396f1dad60e11b145b80610c2d57506001600160e01b0319821663278f794360e11b145b15610c3a57506001919050565b506000919050565b600060008051602061320f833981519152604080516001600160a01b0385166020820152600292909201910160408051601f198184030181529082905261059b91612c99565b33735ff137d4b0fdcd49dca30c7cf57e578a026d278914610cab57610cab610e3e565b6108fa848484848080601f016020809104026020016040519081016040528093929190818152602001838380828437600092019190915250610fb092505050565b33735ff137d4b0fdcd49dca30c7cf57e578a026d278914610d1f576040516282b42960e81b815260040160405180910390fd5b6000610d2e6004828486612d27565b610d3791612d51565b9050610d4281610bc6565b610d6b57604051631d8370a360e11b81526001600160e01b0319821660048201526024016107a3565b6106dc30600085858080601f016020809104026020016040519081016040528093929190818152602001838380828437600092019190915250610fb092505050565b6000610501826111da565b6000806000610dc5611193565b8151602080840191909120825182840120604080517f8b73c3c69bb8fe3d512ecc4cf759cc79239f7b179b0ffacaa9a75d522b39400f9481019490945283019190915260608201524660808201523060a0820152919350915060c001604051602081830303815290604052805190602001209250505090565b610e4733610c42565b80610e5157503330145b15610e5857565b6040516282b42960e81b815260040160405180910390fd5b61053c8160008051602061320f8339815191525b8054906000610e9283612e50565b91905055611210565b600080610eaa83850185612e69565b90506000610ebb8260000151610b05565b90508051602003610f1a576001600160a01b03610ed782612ef5565b1115610ef8578060405163bff1ac6560e01b81526004016107a39190612bce565b600060208201519050610f10818885602001516112df565b9350505050610572565b8051604003610f955760008082806020019051810190610f3a9190612f19565b9150915060008460200151806020019051810190610f589190612f82565b9050610f8989604051602001610f7091815260200190565b60405160208183030381529060405260008386866113e4565b95505050505050610572565b806040516327755b9160e11b81526004016107a39190612bce565b600080846001600160a01b03168484604051610fcc9190612c99565b60006040518083038185875af1925050503d8060008114611009576040519150601f19603f3d011682016040523d82523d6000602084013e61100e565b606091505b5091509150816108f857805160208201fd5b61053c610e3e565b600061103382611754565b805190602001209050919050565b60005b81518110156105d95781818151811061105f5761105f612cb5565b602002602001015151602014158015611093575081818151811061108557611085612cb5565b602002602001015151604014155b156110cc578181815181106110aa576110aa612cb5565b60200260200101516040516327755b9160e11b81526004016107a39190612bce565b8181815181106110de576110de612cb5565b602002602001015151602014801561112057506001600160a01b03801682828151811061110d5761110d612cb5565b602002602001015161111e90612ef5565b115b156111595781818151811061113757611137612cb5565b602002602001015160405163bff1ac6560e01b81526004016107a39190612bce565b61118b82828151811061116e5761116e612cb5565b6020026020010151610e8460008051602061320f83398151915290565b600101611044565b604080518082018252601581527410dbda5b98985cd94814db585c9d0815d85b1b195d605a1b602080830191909152825180840190935260018352603160f81b9083015291565b60006111e4610db8565b6111ed83611827565b60405161190160f01b602082015260228101929092526042820152606201610934565b61121982610579565b15611239578160405163468b12ad60e11b81526004016107a39190612bce565b600160008051602061320f8339815191526002018360405161125b9190612c99565b908152604051908190036020019020805491151560ff199092169190911790558161129160008051602061320f83398151915290565b600083815260019190910160205260409020906112ae908261308d565b50807f38109edc26e166b5579352ce56a50813177eb25208fd90d61f2f37838622022083604051610ad29190612bce565b6001600160a01b03909216916000831561057257604051836000526020830151604052604083510361134f576040830151601b8160ff1c016020528060011b60011c60605250602060016080600060015afa805186183d151761134d57506000606052604052506001610572565b505b604183510361139557606083015160001a6020526040830151606052602060016080600060015afa805186183d151761139357506000606052604052506001610572565b505b600060605280604052631626ba7e60e01b808252846004830152602482016040815284516020018060448501828860045afa505060208160443d01858a5afa9051909114169150509392505050565b60007f7fffffff800000007fffffffffffffffde737d56d38bcf4279dce5617e3192a88460a00151111561141a5750600061174b565b606084015160009061143d9061143181601561314c565b60208801519190611862565b90507fff1a2a9176d650e4a99dedb58f1793003935130579fe17b5a3f698ac5b00e63481805190602001201461147757600091505061174b565b6000611485886001806118c8565b604051602001611495919061315f565b604051602081830303815290604052905060006114cd8760400151835189604001516114c1919061314c565b60208a01519190611862565b905081805190602001208180519060200120146114f0576000935050505061174b565b86518051600160f81b918291602090811061150d5761150d612cb5565b0160200151166001600160f81b0319161461152e576000935050505061174b565b878015611566575086518051600160fa1b918291602090811061155357611553612cb5565b0160200151166001600160f81b03191614155b15611577576000935050505061174b565b60006002886020015160405161158d9190612c99565b602060405180830381855afa1580156115aa573d6000803e3d6000fd5b5050506040513d601f19601f820116820180604052508101906115cd91906131a0565b9050600060028960000151836040516020016115ea9291906131b9565b60408051601f198184030181529082905261160491612c99565b602060405180830381855afa158015611621573d6000803e3d6000fd5b5050506040513d601f19601f8201168201806040525081019061164491906131a0565b6080808b015160a0808d015160408051602081018790529081019390935260608301529181018b905290810189905290915060009060c00160405160208183030381529060405290506000806101006001600160a01b0316836040516116aa9190612c99565b600060405180830381855afa9150503d80600081146116e5576040519150601f19603f3d011682016040523d82523d6000602084013e6116ea565b606091505b508051919350915015158280156116fe5750805b1561172a578180602001905181019061171791906131a0565b600114995050505050505050505061174b565b61173f858e608001518f60a001518f8f6119bd565b99505050505050505050505b95945050505050565b606081356020830135600061177461176f6040870187612ce1565b611aa0565b9050600061178861176f6060880188612ce1565b9050608086013560a087013560c088013560e08901356101008a013560006117b761176f6101208e018e612ce1565b604080516001600160a01b039c909c1660208d01528b81019a909a5260608b019890985250608089019590955260a088019390935260c087019190915260e08601526101008501526101208401526101408084019190915281518084039091018152610160909201905292915050565b604080517f9b493d222105fee7df163ab5d57f0bf1ffd2da04dd5fafbe10b54c41c1adc6576020820152908101829052600090606001610934565b60608351828111611871578092505b83811161187c578093505b5081831015610572575060405182820380825293830193601f19601f820181165b868101518482015281018061189d5750600083830160200152603f9091011681016040529392505050565b606083518015610814576003600282010460021b60405192507f4142434445464748494a4b4c4d4e4f505152535455565758595a616263646566601f526106708515027f6768696a6b6c6d6e6f707172737475767778797a303132333435363738392d5f18603f52602083018181018388602001018051600082525b60038a0199508951603f8160121c1651600053603f81600c1c1651600153603f8160061c1651600253603f811651600353506000518452600484019350828410611944579052602001604052613d3d60f01b60038406600204808303919091526000861515909102918290035290038252509392505050565b60008415806119da57506000805160206131ef8339815191528510155b806119e3575083155b806119fc57506000805160206131ef8339815191528410155b15611a095750600061174b565b611a138383611ab3565b611a1f5750600061174b565b6000611a2a85611bad565b905060006000805160206131ef833981519152828909905060006000805160206131ef83398151915283890990506000611a6687878585611c1f565b90506000805160206131ef833981519152611a8f8a6000805160206131ef8339815191526131db565b8208159a9950505050505050505050565b6000604051828085833790209392505050565b600082158015611ac1575081155b80611ad95750600160601b63ffffffff60c01b031983145b80611af15750600160601b63ffffffff60c01b031982145b15611afe57506000610501565b6000600160601b63ffffffff60c01b031983840990506000600160601b63ffffffff60c01b0319807fffffffff00000001000000000000000000000000fffffffffffffffffffffffc8709600160601b63ffffffff60c01b031987600160601b63ffffffff60c01b0319898a0909089050600160601b63ffffffff60c01b03197f5ac635d8aa3a93e7b3ebbd55769886bc651d06b0cc53b0f63bce3c3e27d2604b820891909114949350505050565b600060405160208152602080820152602060408201528260608201527fffffffff00000000ffffffffffffffffbce6faada7179e84f3b9cac2fc63254f60808201526000805160206131ef83398151915260a082015260208160c0836005600019fa611c1857600080fd5b5192915050565b600080808060ff818088158015611c34575087155b15611c4857600096505050505050506122e1565b611c947f6b17d1f2e12c4247f8bce6e563a440f277037d812deb33a0f4a13945d898c2967f4fe342e2fe1a7f9b8ee7eb4a7c0f9e162bce33576b315ececbb6406837bf51f58d8d6122e9565b909250905081158015611ca5575080155b15611cd3576000805160206131ef833981519152886000805160206131ef833981519152038a089850600097505b600189841c16600189851c1660011b015b80611d065760018403935060018a851c1660018a861c1660011b019050611ce4565b50600189841c16600189851c1660011b01955060018603611d68577f6b17d1f2e12c4247f8bce6e563a440f277037d812deb33a0f4a13945d898c29696507f4fe342e2fe1a7f9b8ee7eb4a7c0f9e162bce33576b315ececbb6406837bf51f593505b60028603611d77578a96508993505b60038603611d86578196508093505b60018303925060019550600194505b82600019111561226a57600160601b63ffffffff60c01b031984600209600160601b63ffffffff60c01b0319818209600160601b63ffffffff60c01b0319818a09600160601b63ffffffff60c01b03198284099250600160601b63ffffffff60c01b031980600160601b63ffffffff60c01b03198b8d08600160601b63ffffffff60c01b03198c600160601b63ffffffff60c01b0319038e0809600309600160601b63ffffffff60c01b03198985099850600160601b63ffffffff60c01b03198a84099950600160601b63ffffffff60c01b031980836002600160601b0363ffffffff60c01b031909600160601b63ffffffff60c01b0319838409089a50600160601b63ffffffff60c01b03198083600160601b63ffffffff60c01b0319038d0882099250600160601b63ffffffff60c01b031983600160601b63ffffffff60c01b03198a870908975060018d881c1660018d891c1660011b01905080611f125787600160601b63ffffffff60c01b03190397505050505061225f565b60018103611f61577f6b17d1f2e12c4247f8bce6e563a440f277037d812deb33a0f4a13945d898c29693507f4fe342e2fe1a7f9b8ee7eb4a7c0f9e162bce33576b315ececbb6406837bf51f592505b60028103611f70578e93508d92505b60038103611f7f578593508492505b89611f98575091985060019750879650945061225f9050565b600160601b63ffffffff60c01b031988600160601b63ffffffff60c01b03198b860908600160601b63ffffffff60c01b03198c600160601b63ffffffff60c01b031903600160601b63ffffffff60c01b03198d880908935080612151578361215157600160601b63ffffffff60c01b0319896002600160601b0363ffffffff60c01b0319099450600160601b63ffffffff60c01b03198586099350600160601b63ffffffff60c01b0319848d099250600160601b63ffffffff60c01b03198486099450600160601b63ffffffff60c01b0319808c600160601b63ffffffff60c01b0319038e08600160601b63ffffffff60c01b03198d8f08099050600160601b63ffffffff60c01b0319816003099150600160601b63ffffffff60c01b03198a86099950600160601b63ffffffff60c01b03198b85099a50600160601b63ffffffff60c01b031980846002600160601b0363ffffffff60c01b031909600160601b63ffffffff60c01b0319848509089b50600160601b63ffffffff60c01b0319808d600160601b63ffffffff60c01b031903850883099350600160601b63ffffffff60c01b0319808a870985089850505050505061225f565b600160601b63ffffffff60c01b03198485099150600160601b63ffffffff60c01b0319848309600160601b63ffffffff60c01b0319838d099b50600160601b63ffffffff60c01b0319818c099a50600160601b63ffffffff60c01b0319838e09600160601b63ffffffff60c01b031980826002600160601b0363ffffffff60c01b031909600160601b63ffffffff60c01b031984600160601b63ffffffff60c01b031903600160601b63ffffffff60c01b031987880908089350600160601b63ffffffff60c01b031980838d09600160601b63ffffffff60c01b031985600160601b63ffffffff60c01b031988600160601b63ffffffff60c01b031903860809089a50505050809a50505050505b600183039250611d95565b60405186606082015260208152602080820152602060408201526002600160601b0363ffffffff60c01b03196080820152600160601b63ffffffff60c01b031960a082015260208160c0836005600019fa6122c457600080fd5b600160601b63ffffffff60c01b0319815189099750505050505050505b949350505050565b60008080808661230057858593509350505061236e565b8461231257878793509350505061236e565b858814801561232057508487145b15612341576123328888600180612377565b929a509098509250905061235b565b61235088886001808a8a6124d2565b929a50909850925090505b61236788888484612656565b9350935050505b94509492505050565b600080600080600160601b63ffffffff60c01b0319876002099350600160601b63ffffffff60c01b03198485099150600160601b63ffffffff60c01b03198289099050600160601b63ffffffff60c01b03198285099250600160601b63ffffffff60c01b03198683099150600160601b63ffffffff60c01b031980600160601b63ffffffff60c01b0319888b08600160601b63ffffffff60c01b031989600160601b63ffffffff60c01b0319038c08096003099550600160601b63ffffffff60c01b031980826002600160601b0363ffffffff60c01b031909600160601b63ffffffff60c01b0319888909089350600160601b63ffffffff60c01b03198085600160601b63ffffffff60c01b031903830887099750600160601b63ffffffff60c01b03198584099050600160601b63ffffffff60c01b031980888509600160601b63ffffffff60c01b03190389089250945094509450949050565b600080600080886000036124f157508492508391506001905080612649565b600160601b63ffffffff60c01b0319988903988981898809089450600160601b63ffffffff60c01b03198a600160601b63ffffffff60c01b031903600160601b63ffffffff60c01b03198a8909089550600160601b63ffffffff60c01b03198687099350600160601b63ffffffff60c01b03198685099250600160601b63ffffffff60c01b03198489099150600160601b63ffffffff60c01b03198388099050600160601b63ffffffff60c01b0319848b099750600160601b63ffffffff60c01b031980896002600160601b0363ffffffff60c01b031909600160601b63ffffffff60c01b031985600160601b63ffffffff60c01b031903600160601b63ffffffff60c01b0319898a0908089350600160601b63ffffffff60c01b031980848b09600160601b63ffffffff60c01b031987600160601b63ffffffff60c01b031988600160601b63ffffffff60c01b0319038d08090892505b9650965096509692505050565b6000806000612664846126c3565b9050600160601b63ffffffff60c01b031981870991506000600160601b63ffffffff60c01b03198287099050600160601b63ffffffff60c01b03198182099150600160601b63ffffffff60c01b03198289099350505094509492505050565b600060405160208152602080820152602060408201528260608201526002600160601b0363ffffffff60c01b03196080820152600160601b63ffffffff60c01b031960a082015260208160c0836005600019fa611c1857600080fd5b50805461272b90612e06565b6000825580601f1061273b575050565b601f01602090049060005260206000209081019061053c91905b808211156109ad5760008155600101612755565b6000806040838503121561277c57600080fd5b50508035926020909101359150565b80356001600160a01b03811681146127a257600080fd5b919050565b6000602082840312156127b957600080fd5b6105728261278b565b60008083601f8401126127d457600080fd5b5081356001600160401b038111156127eb57600080fd5b60208301915083602082850101111561280357600080fd5b9250929050565b60008060006040848603121561281f57600080fd5b8335925060208401356001600160401b0381111561283c57600080fd5b612848868287016127c2565b9497909650939450505050565b634e487b7160e01b600052604160045260246000fd5b60405160c081016001600160401b038111828210171561288d5761288d612855565b60405290565b604051601f8201601f191681016001600160401b03811182821017156128bb576128bb612855565b604052919050565b60006001600160401b038211156128dc576128dc612855565b50601f01601f191660200190565b600082601f8301126128fb57600080fd5b813561290e612909826128c3565b612893565b81815284602083860101111561292357600080fd5b816020850160208301376000918101602001919091529392505050565b60006020828403121561295257600080fd5b81356001600160401b0381111561296857600080fd5b6122e1848285016128ea565b60008083601f84011261298657600080fd5b5081356001600160401b0381111561299d57600080fd5b6020830191508360208260051b850101111561280357600080fd5b600080602083850312156129cb57600080fd5b82356001600160401b038111156129e157600080fd5b6129ed85828601612974565b90969095509350505050565b60006101608284031215612a0c57600080fd5b50919050565b600080600060608486031215612a2757600080fd5b83356001600160401b03811115612a3d57600080fd5b612a49868287016129f9565b9660208601359650604090950135949350505050565b600080600060408486031215612a7457600080fd5b612a7d8461278b565b925060208401356001600160401b0381111561283c57600080fd5b600060208284031215612aaa57600080fd5b81356001600160401b03811115612ac057600080fd5b6122e1848285016129f9565b600060208284031215612ade57600080fd5b5035919050565b60005b83811015612b00578181015183820152602001612ae8565b50506000910152565b60008151808452612b21816020860160208601612ae5565b601f01601f19169290920160200192915050565b60ff60f81b881681526000602060e06020840152612b5660e084018a612b09565b8381036040850152612b68818a612b09565b606085018990526001600160a01b038816608086015260a0850187905284810360c08601528551808252602080880193509091019060005b81811015612bbc57835183529284019291840191600101612ba0565b50909c9b505050505050505050505050565b6020815260006105726020830184612b09565b600060208284031215612bf357600080fd5b81356001600160e01b03198116811461057257600080fd5b60008060008060608587031215612c2157600080fd5b612c2a8561278b565b93506020850135925060408501356001600160401b03811115612c4c57600080fd5b612c58878288016127c2565b95989497509550505050565b60008060208385031215612c7757600080fd5b82356001600160401b03811115612c8d57600080fd5b6129ed858286016127c2565b60008251612cab818460208701612ae5565b9190910192915050565b634e487b7160e01b600052603260045260246000fd5b60008235605e19833603018112612cab57600080fd5b6000808335601e19843603018112612cf857600080fd5b8301803591506001600160401b03821115612d1257600080fd5b60200191503681900382131561280357600080fd5b60008085851115612d3757600080fd5b83861115612d4457600080fd5b5050820193919092039150565b6001600160e01b03198135818116916004851015612d795780818660040360031b1b83161692505b505092915050565b60006001600160401b0380841115612d9b57612d9b612855565b8360051b6020612dad60208301612893565b86815291850191602081019036841115612dc657600080fd5b865b84811015612dfa57803586811115612de05760008081fd5b612dec36828b016128ea565b845250918301918301612dc8565b50979650505050505050565b600181811c90821680612e1a57607f821691505b602082108103612a0c57634e487b7160e01b600052602260045260246000fd5b634e487b7160e01b600052601160045260246000fd5b600060018201612e6257612e62612e3a565b5060010190565b600060208284031215612e7b57600080fd5b81356001600160401b0380821115612e9257600080fd5b9083019060408286031215612ea657600080fd5b604051604081018181108382111715612ec157612ec1612855565b60405282358152602083013582811115612eda57600080fd5b612ee6878286016128ea565b60208301525095945050505050565b80516020808301519190811015612a0c5760001960209190910360031b1b16919050565b60008060408385031215612f2c57600080fd5b505080516020909101519092909150565b600082601f830112612f4e57600080fd5b8151612f5c612909826128c3565b818152846020838601011115612f7157600080fd5b6122e1826020830160208701612ae5565b600060208284031215612f9457600080fd5b81516001600160401b0380821115612fab57600080fd5b9083019060c08286031215612fbf57600080fd5b612fc761286b565b825182811115612fd657600080fd5b612fe287828601612f3d565b825250602083015182811115612ff757600080fd5b61300387828601612f3d565b60208301525060408301516040820152606083015160608201526080830151608082015260a083015160a082015280935050505092915050565b601f8211156106dc576000816000526020600020601f850160051c810160208610156130665750805b601f850160051c820191505b8181101561308557828155600101613072565b505050505050565b81516001600160401b038111156130a6576130a6612855565b6130ba816130b48454612e06565b8461303d565b602080601f8311600181146130ef57600084156130d75750858301515b600019600386901b1c1916600185901b178555613085565b600085815260208120601f198616915b8281101561311e578886015182559484019460019091019084016130ff565b508582101561313c5787850151600019600388901b60f8161c191681555b5050505050600190811b01905550565b8082018082111561050157610501612e3a565b6c1131b430b63632b733b2911d1160991b8152815160009061318881600d850160208701612ae5565b601160f91b600d939091019283015250600e01919050565b6000602082840312156131b257600080fd5b5051919050565b600083516131cb818460208801612ae5565b9190910191825250602001919050565b8181038181111561050157610501612e3a56feffffffff00000000ffffffffffffffffbce6faada7179e84f3b9cac2fc63255197e2c6aad4ce5d562ebfaa00db6b9e0fb66ea5d8162ed5b243f51a2e03086f00a26469706673582212206267bdd6ae13c948b83275fcdafdc1366dd287cbf41ef689e1d49904a10ea33e64736f6c6343000817003397e2c6aad4ce5d562ebfaa00db6b9e0fb66ea5d8162ed5b243f51a2e03086f00",
    "linkReferences": {}
  },
  "methodIdentifiers": {
    "REPLAYABLE_NONCE_KEY()": "88ce4c7c",
    "addOwnerAddress(address)": "0f0f3f24",
    "addOwnerPublicKey(bytes32,bytes32)": "29565e3b",
    "canSkipChainIdValidation(bytes4)": "9f9bcb34",
    "domainSeparator()": "f698da25",
    "eip712Domain()": "84b0196e",
    "entryPoint()": "b0d691fe",
    "execute(address,uint256,bytes)": "b61d27f6",
    "executeBatch((address,uint256,bytes)[])": "34fcd5be",
    "executeWithoutChainIdValidation(bytes)": "bf6ba1fc",
    "getUserOpHashWithoutChainId((address,uint256,bytes,bytes,uint256,uint256,uint256,uint256,uint256,bytes,bytes))": "4f6e7f22",
    "implementation()": "5c60da1b",
    "initialize(bytes[])": "6f2de70e",
    "isOwnerAddress(address)": "a2e1a8d8",
    "isOwnerBytes(bytes)": "1ca5393f",
    "isOwnerPublicKey(bytes32,bytes32)": "066a1eb7",
    "isValidSignature(bytes32,bytes)": "1626ba7e",
    "nextOwnerIndex()": "d948fd2e",
    "ownerAtIndex(uint256)": "8ea69029",
    "proxiableUUID()": "52d1902d",
    "removeOwnerAtIndex(uint256)": "72de3b5a",
    "replaySafeHash(bytes32)": "ce1506be",
    "upgradeToAndCall(address,bytes)": "4f1ef286",
    "validateUserOp((address,uint256,bytes,bytes,uint256,uint256,uint256,uint256,uint256,bytes,bytes),bytes32,uint256)": "3a871cdd"
  },
  "id": 40
}