{
  "abi": [
    {
      "type": "constructor",
      "inputs": [
        {
          "name": "erc4337",
          "type": "address",
          "internalType": "address"
        }
      ],
      "stateMutability": "payable"
    },
    {
      "type": "function",
      "name": "createAccount",
      "inputs": [
        {
          "name": "owners",
          "type": "bytes[]",
          "internalType": "bytes[]"
        },
        {
          "name": "nonce",
          "type": "uint256",
          "internalType": "uint256"
        }
      ],
      "outputs": [
        {
          "name": "account",
          "type": "address",
          "internalType": "contract CoinbaseSmartWallet"
        }
      ],
      "stateMutability": "payable"
    },
    {
      "type": "function",
      "name": "getAddress",
      "inputs": [
        {
          "name": "owners",
          "type": "bytes[]",
          "internalType": "bytes[]"
        },
        {
          "name": "nonce",
          "type": "uint256",
          "internalType": "uint256"
        }
      ],
      "outputs": [
        {
          "name": "predicted",
          "type": "address",
          "internalType": "address"
        }
      ],
      "stateMutability": "view"
    },
    {
      "type": "function",
      "name": "implementation",
      "inputs": [],
      "outputs": [
        {
          "name": "",
          "type": "address",
          "internalType": "address"
        }
      ],
      "stateMutability": "view"
    },
    {
      "type": "function",
      "name": "initCodeHash",
      "inputs": [],
      "outputs": [
        {
          "name": "result",
          "type": "bytes32",
          "internalType": "bytes32"
        }
      ],
      "stateMutability": "view"
    },
    {
      "type": "error",
      "name": "OwnerRequired",
      "inputs": []
    }
  ],
  "bytecode": {
    "object": "0x60a06040526040516105eb3803806105eb83398101604081905261002291610033565b6001600160a01b0316608052610063565b60006020828403121561004557600080fd5b81516001600160a01b038116811461005c57600080fd5b9392505050565b60805161056061008b6000396000818160a60152818161013c015261023b01526105606000f3fe60806040526004361061003f5760003560e01c8063250b1b41146100445780633ffba36f146100815780635c60da1b14610094578063db4c545e146100c8575b600080fd5b34801561005057600080fd5b5061006461005f3660046103b7565b6100eb565b6040516001600160a01b0390911681526020015b60405180910390f35b61006461008f3660046103b7565b610111565b3480156100a057600080fd5b506100647f000000000000000000000000000000000000000000000000000000000000000081565b3480156100d457600080fd5b506100dd6101e6565b604051908152602001610078565b60006101096100f86101e6565b61010386868661027b565b306102b1565b949350505050565b600082810361013357604051633c776be160e01b815260040160405180910390fd5b60008061016b347f000000000000000000000000000000000000000000000000000000000000000061016689898961027b565b6102d3565b935091508290508115156000036101dd57604051633796f38760e11b81526001600160a01b03841690636f2de70e906101aa90899089906004016104f2565b600060405180830381600087803b1580156101c457600080fd5b505af11580156101d8573d6000803e3d6000fd5b505050505b50509392505050565b604080517fcc3735a920a3ca505d382bbc545af43d6000803e6038573d6000fd5b3d6000f360609081527f5155f3363d3d373d3d363d7f360894a13ba1a3210667c828492db98dca3e207683526160096020527f0000000000000000000000000000000000000000000000000000000000000000601e5268603d3d8160223d3973600a52605f60212091909252600090915290565b600083838360405160200161029293929190610506565b6040516020818303038152906040528051906020012090509392505050565b600060ff60005350603592835260601b60015260155260556000908120915290565b6000806040517fcc3735a920a3ca505d382bbc545af43d6000803e6038573d6000fd5b3d6000f36060527f5155f3363d3d373d3d363d7f360894a13ba1a3210667c828492db98dca3e207660405261600960205284601e5268603d3d8160223d3973600a52605f60212060358201523060581b815260ff8153836015820152605581209150813b61037f5783605f602188f591508161037a5763301164256000526004601cfd5b6103a5565b6001925085156103a55760003860003889865af16103a55763b12d13eb6000526004601cfd5b80604052506000606052935093915050565b6000806000604084860312156103cc57600080fd5b833567ffffffffffffffff808211156103e457600080fd5b818601915086601f8301126103f857600080fd5b81358181111561040757600080fd5b8760208260051b850101111561041c57600080fd5b6020928301989097509590910135949350505050565b81835281816020850137506000828201602090810191909152601f909101601f19169091010190565b6000838385526020808601955060208560051b8301018460005b878110156104e557848303601f19018952813536889003601e1901811261049b57600080fd5b8701848101903567ffffffffffffffff8111156104b757600080fd5b8036038213156104c657600080fd5b6104d1858284610432565b9a86019a9450505090830190600101610475565b5090979650505050505050565b60208152600061010960208301848661045b565b60408152600061051a60408301858761045b565b905082602083015294935050505056fea264697066735822122098bae64e62859ac8d5ed01c4927e5fce406f632b517c86f038f06fef8355dba164736f6c63430008170033",
    "linkReferences": {}
  },
  "methodIdentifiers": {
    "createAccount(bytes[],uint256)": "3ffba36f",
    "getAddress(bytes[],uint256)": "250b1b41",
    "implementation()": "5c60da1b",
    "initCodeHash()": "db4c545e"
  },
  "id": 41
}